:0400000007EF00F016
:0A0008007D8213ED08F046EF12F0C0
:10100000003132333435363738392A30234176616E
:10101000696C61626C6520506C61636573203A2075
:0510200000256900003D
:101026000600F2A819EF08F01BEF08F024EF08F00D
:10103600F2A220EF08F022EF08F024EF08F0ECEC23
:1010460014F0F0A629EF08F02BEF08F034EF08F0C3
:10105600F0A030EF08F032EF08F034EF08F0EAECD9
:1010660014F0F0A839EF08F03BEF08F044EF08F071
:10107600F0A240EF08F042EF08F044EF08F0E8EC89
:1010860014F0F2A649EF08F04BEF08F066EF08F00F
:10109600F2A050EF08F052EF08F066EF08F081A8D2
:1010A60057EF08F059EF08F066EF08F05A50D8A449
:1010B6005FEF08F061EF08F066EF08F0010E5A6E78
:1010C600000EBCEC14F0F2A66BEF08F06DEF08F022
:1010D60088EF08F0F2A072EF08F074EF08F088EFDE
:1010E60008F081B879EF08F07BEF08F088EF08F098
:1010F6005A04D8A481EF08F083EF08F088EF08F0CF
:10110600000E5A6E010EBCEC14F0F2A68DEF08F03C
:101116008FEF08F0AAEF08F0F2A094EF08F096EF30
:1011260008F0AAEF08F081AA9BEF08F09DEF08F0FF
:10113600AAEF08F05B50D8A4A3EF08F0A5EF08F0DB
:10114600AAEF08F0010E5B6E000EAFEC14F0F2A6EB
:10115600AFEF08F0B1EF08F0CCEF08F0F2A0B6EF71
:1011660008F0B8EF08F0CCEF08F081BABDEF08F050
:10117600BFEF08F0CCEF08F05B04D8A4C5EF08F089
:10118600C7EF08F0CCEF08F0000E5B6E010EAFEC77
:1011960014F0F2A6D1EF08F0D3EF08F0EEEF08F066
:1011A600F2A0D8EF08F0DAEF08F0EEEF08F081AC25
:1011B600DFEF08F0E1EF08F0EEEF08F05C50D8A49E
:1011C600E7EF08F0E9EF08F0EEEF08F0010E5C6ECD
:1011D600000EA2EC14F0F2A6F3EF08F0F5EF08F01B
:1011E60010EF09F0F2A0FAEF08F0FCEF08F010EFAC
:1011F60009F081BC01EF09F003EF09F010EF09F0E7
:101206005C04D8A409EF09F00BEF09F010EF09F020
:10121600000E5C6E010EA2EC14F0F2A615EF09F0BA
:1012260017EF09F032EF09F0F2A01CEF09F01EEFFC
:1012360009F032EF09F081AE23EF09F025EF09F04E
:1012460032EF09F05D50D8A42BEF09F02DEF09F02D
:1012560032EF09F0010E5D6E000E95EC14F0F2A669
:1012660037EF09F039EF09F054EF09F0F2A03EEF3D
:1012760009F040EF09F054EF09F081BE45EF09F09F
:1012860047EF09F054EF09F05D04D8A44DEF09F0DB
:101296004FEF09F054EF09F0000E5D6E010E95EC6C
:1012A60014F09DAC59EF09F05BEF09F064EF09F01B
:1012B6009EAC60EF09F062EF09F064EF09F0F2EC22
:1012C60014F0F2AA69EF09F06BEF09F074EF09F078
:1012D600F2A470EF09F072EF09F074EF09F0D5ECA3
:1012E60014F09DA079EF09F07BEF09F084EF09F087
:1012F6009EA080EF09F082EF09F084EF09F0CFECB1
:1013060014F09DA289EF09F08BEF09F094EF09F034
:101316009EA290EF09F092EF09F094EF09F0E0EC4D
:1013260014F0A0A299EF09F09BEF09F0A4EF09F0E1
:10133600A1A2A0EF09F0A2EF09F0A4EF09F0C9EC11
:1013460014F09DA4A9EF09F0ABEF09F0B4EF09F092
:101356009EA4B0EF09F0B2EF09F0B4EF09F0F0EC9B
:1013660014F0A0A0B9EF09F0BBEF09F0C4EF09F043
:10137600A1A0C0EF09F0C2EF09F0C4EF09F0EEEC4E
:1013860014F07D921100DBEC14F0DE0E1E6E000EE2
:101396001F6E010E206E010E216E0D0E226E100EB6
:1013A600236EB3EC12F00001EA6FB90E566E000E12
:1013B600576E7650E0EC12F00001EA6FDE0E1E6EFC
:1013C600000E1F6E020E206E010E216EB90E226EE9
:1013D600000E236EB3EC12F00001EA6F7C0E0C6E69
:1013E600000E0D6E750E0E6E000E0F6EC7EC11F030
:1013F6000001EA6F7504D8A403EF0AF005EF0AF0BE
:101406007AEF0AF07650D8B40BEF0AF00DEF0AF037
:101416007AEF0AF06A50D8A413EF0AF015EF0AF033
:101426007AEF0AF07606010E6A6EB90E566E000E57
:10143600576E7650E0EC12F00001EA6FDE0E1E6E7B
:10144600000E1F6E020E206E010E216EB90E226E68
:10145600000E236EB3EC12F00001EA6F790E0C6EEB
:10146600000E0D6EA5EC13F00001EA6F040E0001EC
:10147600E96FCF0EE86F010EE82EFED7E82FFCD7F6
:10148600E92FFAD700D0790E0C6E000E0D6E82ECA5
:1014960013F00001EA6F030E0001E96F8A0EE86F90
:1014A600550EE82EFED7E82FFCD7E92FFAD700D045
:1014B600790E0C6E000E0D6EC8EC13F00001EA6F8B
:1014C600040E0001E96FCF0EE86F010EE82EFED77D
:1014D600E82FFCD7E92FFAD700D0790E0C6E000E54
:1014E6000D6E82EC13F00001EA6F84EF0AF075507E
:1014F600D8A480EF0AF082EF0AF084EF0AF0000E1B
:101506006A6E7B0E0C6E000E0D6E740E0E6E000E65
:101516000F6EC7EC11F00001EA6F7404D8A496EFC1
:101526000AF098EF0AF00DEF0BF0050E76609EEFCD
:101536000AF0A0EF0AF00DEF0BF06950D8A4A6EF61
:101546000AF0A8EF0AF00DEF0BF0762A010E696E8D
:10155600B90E566E000E576E7650E0EC12F0000192
:10156600EA6FDE0E1E6E000E1F6E020E206E010E5C
:10157600216EB90E226E000E236EB3EC12F000013E
:10158600EA6F770E0C6E000E0D6EA5EC13F00001DF
:10159600EA6F040E0001E96FCF0EE86F010EE82E28
:1015A600FED7E82FFCD7E92FFAD700D0770E0C6EBE
:1015B600000E0D6E82EC13F00001EA6F030E0001BF
:1015C600E96F8A0EE86F550EE82EFED7E82FFCD796
:1015D600E92FFAD700D0770E0C6E000E0D6EC8EC10
:1015E60013F00001EA6F040E0001E96FCF0EE86FF9
:1015F600010EE82EFED7E82FFCD7E92FFAD700D048
:10160600770E0C6E000E0D6E82EC13F00001EA6F81
:10161600D8EF09F07450D8A413EF0BF015EF0BF0C8
:10162600D8EF09F0000E696ED8EF09F007EF00F069
:1016360020BE20EF0BF023EF0BF0010E24EF0BF092
:10164600000E296E2950D8B42BEF0BF02DEF0BF0BE
:1016560031EF0BF01F6C201ED8B0202A5FBE38EF8A
:101666000BF036EF0BF03EEF0BF0000E246E010E82
:10167600236E42EF0BF05EC023F05FC024F0A7C0DC
:1016860025F0A8C026F02950D8B44CEF0BF04EEF49
:101696000BF065EF0BF02506D8A026062950D8A436
:1016A60057EF0BF059EF0BF05FEF0BF0000E226EC9
:1016B6002B0E216E63EF0BF0000E226E2D0E216EA7
:1016C60021C029F0000E286E1F0E276E000E0101A4
:1016D6001F6F9EEF0BF02706D8A02806000E2724C2
:1016E600D96E010E2820DA6E1FC002F020C003F06A
:1016F600000E056E0A0E046E8BEC10F002C008F0A8
:1017060003C009F00DEC14F00850300FDF6E23060D
:10171600D8A024062506D8A026061FC002F020C0A1
:1017260003F0000E056E0A0E046E6CEC0FF002C09C
:101736001FF003C020F028BEA9EF0BF0285008E1E7
:101746002704D8A0A9EF0BF0ABEF0BF0C1EF0BF01D
:101756001F502010D8A4B2EF0BF0B4EF0BF06EEFD1
:101766000BF024BEC1EF0BF0245006E12304D8B0E1
:10177600BFEF0BF0C1EF0BF06EEF0BF02950D8B4B2
:10178600C7EF0BF0C9EF0BF0D4EF0BF02706D8A08C
:101796002806000E2724D96E010E2820DA6E29C0ED
:1017A600DFFF1DC012F01EC013F0000E2724146EBA
:1017B600010E2820156E25C016F026C017F009EC7C
:1017C60012F0120002C00CF003C00DF00650071014
:1017D600D8A4F0EF0BF0F2EF0BF0F4EF0BF09FEF65
:1017E6000CF00CC0D9FF0DC0DAFF04C0DFFF0650B5
:1017F6000C24086E07500D20096EFF0E0824D96EC2
:10180600FF0E0920DA6E04C0DFFF075007E1030E62
:10181600065CD8B011EF0CF013EF0CF015EF0CF0DE
:101826009FEF0CF020EE01F00C50D9260D50DA2275
:1018360004C0DFFF20EE02F00C50D9260D50DA224C
:1018460004C0DFFF06500C24086E07500D20096EF9
:10185600FE0E0824D96EFF0E0920DA6E04C0DFFFE3
:1018660006500C24086E07500D20096EFD0E082444
:10187600D96EFF0E0920DA6E04C0DFFF075007E1BC
:10188600070E065CD8B04AEF0CF04CEF0CF04EEFAA
:101896000CF09FEF0CF020EE03F00C50D9260D5003
:1018A600DA2204C0DFFF06500C24086E07500D2014
:1018B600096EFC0E0824D96EFF0E0920DA6E04C0EC
:1018C600DFFF075007E1090E065CD8B06DEF0CF09C
:1018D6006FEF0CF071EF0CF09FEF0CF00CC008F0FE
:1018E6000DC009F0081E091E084A092A030E08142D
:1018F6000A6E0B6A0A500C260B500D220A50065E21
:101906000B50075AFC0E0616FF0E071696EF0CF044
:101916000CC0D9FF0DC0DAFF04C0DFFF0606D8A051
:1019260007060C4A0D2A06500710D8A49DEF0CF0A6
:101936009FEF0CF08BEF0CF01200010E0A6E0250B6
:101946000310D8B4A9EF0CF0ABEF0CF0BCEF0CF021
:1019560002C0D9FF03C0DAFFDF30E832E832070BF6
:10196600046E070E0464BAEF0CF0BCEF0CF01FEF28
:101976000DF0000E0A6E40EF0DF002C0D9FF03C055
:10198600DAFFDF30E832E832070B046E010E056E2F
:10199600042AD0EF0CF0D8900536042ECEEF0CF0CA
:1019A6000550FF0A066E02C0D9FF03C0DAFFDF50FA
:1019B600070B076E0750020DD40EF324D96E000EE6
:1019C600F420DA6EDECF08F0DDCF09F008C0D9FFCB
:1019D60009C0DAFF0650DF1640EF0DF002C0D9FF4E
:1019E60003C0DAFFDF30E832E832070B046E010E7F
:1019F600056E042A01EF0DF0D8900536042EFFEF90
:101A06000CF002C0D9FF03C0DAFFDF50070B066EE9
:101A16000650020DD40EF324D96E000EF420DA6EB1
:101A2600DECF07F0DDCF08F007C0D9FF08C0DAFF28
:101A36000550DF1240EF0DF002C0D9FF03C0DAFFF8
:101A4600DFBC28EF0DF02BEF0DF0010E2CEF0DF0A3
:101A5600000E046E056A0550000AD8B435EF0DF085
:101A6600BCEF0CF00450000AD8B4C0EF0CF0010A29
:101A7600D8B4F1EF0CF0BCEF0CF00A50120017507E
:101A86001810D8A449EF0DF04BEF0DF04FEF0DF005
:101A9600000E1C6ED9EF0DF0080E17240C6E000E0A
:101AA60018200D6E7DEC12F01C6E090E17240C6EBC
:101AB600000E18200D6E7DEC12F01C6E000E1B6ED3
:101AC600000E1A6E1A5017240C6E1B5018200D6E3D
:101AD6007DEC12F01A4A1B2A1BBE7BEF0DF01B5041
:101AE60009E1080E1A5CD8A07BEF0DF07DEF0DF032
:101AF60065EF0DF01A0E196EF80EE82EFED7192EA8
:101B0600FCD700D017C00FF018C010F0380E116EB9
:101B16007CEC11F0070E196E7D0EE82EFED7192EFD
:101B2600FCD700F017C00FF018C010F0380E116E79
:101B36007CEC11F0320EE82EFED717C00FF018C05D
:101B460010F0380E116E7CEC11F017C00FF018C0B3
:101B560010F0010E116E7CEC11F017C00FF018C0DA
:101B660010F0020E116E7CEC11F017C00FF018C0C9
:101B760010F0060E116E7CEC11F017C00FF018C0B5
:101B860010F00C0E116E7CEC11F017C00FF018C09F
:101B960010F0380E116E7CEC11F017C00FF018C063
:101BA60010F0800E116E7CEC11F01C6E1C501200B1
:101BB6002CC0D9FF2DC0DAFFDECFF6FFDDCFF7FF51
:101BC600F86A0800F550250AD8A4ECEF0DF0EEEF00
:101BD6000DF05BEF0EF02CC0D9FF2DC0DAFFDE2A28
:101BE600000EDD22000E0001A86F000EA76FA7C031
:101BF60068F05E685F682CC0D9FF2DC0DAFFDECFC3
:101C060036F0DDCF37F036C0F6FF37C0F7FFF86A9B
:101C16000800F550640AD8B413EF0EF015EF0EF075
:101C260024EF0EF036C0F6FF37C0F7FFF86A08005B
:101C3600F550690AD8A422EF0EF024EF0EF052EF09
:101C46000EF02EC0D9FF2FC0DAFFDFCF30F0020E24
:101C5600DE26DFCF31F0000EDD2230C0D9FF31C0E5
:101C6600DAFFDECF32F0DDCF33F0010E3624306EF0
:101C7600000E3720316E2CC0D9FF2DC0DAFF30C0E0
:101C8600DEFF31C0DDFF2AC01DF02BC01EF032C0C2
:101C96001FF033C020F01BEC0BF070EF0EF02CC0E1
:101CA600D9FF2DC0DAFFDE2A000EDD2270EF0EF01E
:101CB6002CC0D9FF2DC0DAFFDECFF6FFDDCFF7FF50
:101CC600F86A0800F550026E036A2AC004F02BC0B9
:101CD60005F007EC0FF052EF0EF01200010E0B6E3E
:101CE60002500310D8B47AEF0EF07CEF0EF08DEFB1
:101CF6000EF002C0D9FF03C0DAFFDF30E832E83267
:101D0600070B056E070E05648BEF0EF08DEF0EF0D8
:101D1600F0EF0EF0000E0B6E05EF0FF002C0D9FFCC
:101D260003C0DAFFDF30E832E832070B056E010E3A
:101D3600066E052AA1EF0EF0D8900636052E9FEF07
:101D46000EF00650FF0A076E02C0D9FF03C0DAFF85
:101D5600DF50070B086E0850020DC00EF324D96E33
:101D6600000EF420DA6EDECF09F0DDCF0AF009C0EE
:101D7600D9FF0AC0DAFF0750DF1605EF0FF002C0E1
:101D8600D9FF03C0DAFFDF30E832E832070B056E11
:101D9600010E066E052AD2EF0EF0D8900636052EF5
:101DA600D0EF0EF002C0D9FF03C0DAFFDF50070BF9
:101DB600076E0750020DC00EF324D96E000EF420F4
:101DC600DA6EDECF08F0DDCF09F008C0D9FF09C012
:101DD600DAFF0650DF1205EF0FF00450056E066AB3
:101DE6000650000AD8B4FAEF0EF08DEF0EF005504B
:101DF600000AD8B491EF0EF0010AD8B4C2EF0EF083
:101E06008DEF0EF00B50120004500510D8B40EEFF3
:101E16000FF010EF0FF019EF0FF004500510D8A4D3
:101E260017EF0FF019EF0FF01EEF0FF00250F4EC62
:101E360014F06BEF0FF020EE0AF00450D92605508F
:101E4600DA22DE50DE10D8B42BEF0FF02DEF0FF0B4
:101E560048EF0FF020EE0AF00450D9260550DA229A
:101E660010EE03F00450E1260550E222DE50E65C57
:101E7600E650800A0A6EDE50800A0A58D8B046EF4D
:101E86000FF048EF0FF06BEF0FF020EE03F0045069
:101E9600D9260550DA22DECF06F0DDCF07F004C0E2
:101EA600D9FF05C0DAFFDECF08F0DDCF09F0065016
:101EB6000824D96E07500920DA6E02C0DFFF20EE33
:101EC60003F00450D9260550DA22DE2A000EDD2260
:101ED6001200000E076E05BE75EF0FF073EF0FF0E0
:101EE6007BEF0FF0046C051ED8B0052A010E076EB5
:101EF60003BE82EF0FF080EF0FF088EF0FF0026C59
:101F0600031ED8B0032A010E071A000E096E000E32
:101F1600086E04500510D8B493EF0FF095EF0FF04C
:101F2600BDEF0FF0010E066E9DEF0FF0D890043650
:101F36000536062A05AEA2EF0FF0A4EF0FF099EFD3
:101F46000FF0D890083609360450025C0550035845
:101F5600D8A0B0EF0FF0B2EF0FF0B7EF0FF00450CC
:101F6600025E0550035A0880D89005320432062EC8
:101F7600A4EF0FF00750D8B4C3EF0FF0C5EF0FF082
:101F8600C9EF0FF0086C091ED8B0092A08C002F084
:101F960009C003F01200010E1D6E17501810D8A4C8
:101FA600D7EF0FF0D9EF0FF0DDEF0FF0000E1D6E3B
:101FB6002DEF10F01A0610EF10F017C00FF018C032
:101FC60010F01A50800F116E7CEC11F01D6E2DEF83
:101FD60010F017C00FF018C010F01A50C00F116E95
:101FE6007CEC11F01D6E2DEF10F017C00FF018C02D
:101FF60010F01A50940F116E7CEC11F01D6E2DEF3F
:1020060010F017C00FF018C010F01A50D40F116E50
:102016007CEC11F01D6E2DEF10F019501B6E1C6A32
:102026001C50000AD8B41AEF10F02DEF10F01B5018
:10203600010AD8B4E0EF0FF0030AD8B4ECEF0FF0C2
:10204600010AD8B4F8EF0FF0070AD8B404EF10F07D
:102056002DEF10F01D501200010E0B6E02500310F2
:10206600D8B438EF10F03AEF10F054EF10F002C089
:10207600D9FF03C0DAFFDF30E832E832070B066E1D
:10208600080E066049EF10F04BEF10F054EF10F019
:1020960004500510D8A452EF10F054EF10F058EF8A
:1020A60010F0000E0B6E89EF10F002C0D9FF03C0CE
:1020B600DAFFDF30E832E832070B066E02C0D9FFDE
:1020C60003C0DAFFDF50070B076E0750020DCA0E7A
:1020D600F324D96E000EF420DA6EDECF08F0DDCFE1
:1020E60009F008C0D9FF09C0DAFFDF500A6E062AD8
:1020F6007FEF10F0D8900A32062E7DEF10F00A50CE
:10210600010B04C0D9FF05C0DAFFDF6E0B501200C9
:10211600000E076E03BE94EF10F092EF10F09AEFE8
:1021260010F0026C031ED8B0032A010E076E05BE1E
:10213600A1EF10F09FEF10F0A5EF10F0046C051E54
:10214600D8B0052A04500510D8B4ACEF10F0AEEFA5
:1021560010F0D2EF10F0010E066EB6EF10F0D89028
:1021660004360536062A05AEBBEF10F0BDEF10F0BB
:10217600B2EF10F00450025C05500358D8A0C6EF29
:1021860010F0C8EF10F0CCEF10F00450025E0550CE
:10219600035AD89005320432062EBDEF10F00750D0
:1021A600D8B4D8EF10F0DAEF10F0DEEF10F0026CD2
:1021B600031ED8B0032A02C002F003C003F01200C7
:1021C600010E1B6E17501810D8B4ECEF10F0EEEF9E
:1021D60010F0F7EF10F019501A10D8A4F5EF10F020
:1021E600F7EF10F016EF11F0000E1B6E2FEF11F047
:1021F60017C00FF018C010F019C0F6FF1AC0F7FF8D
:10220600000EF86E0F0EF76403D00800F55005D0E7
:10221600F6CFE9FFF7CFEAFFEF50116E31EC11F080
:102226001B6E194A1A2A19C0F6FF1AC0F7FF000ECC
:10223600F86E0F0EF76403D00800F55005D0F6CF00
:10224600E9FFF7CFEAFFEF500009D8A42DEF11F010
:102256002FEF11F0FBEF10F01B5012000F50101073
:10226600D8A438EF11F03AEF11F03EEF11F0000E5E
:10227600146E7AEF11F0090E0F24026E000E102074
:10228600036E010E046E71EC0EF0000E166E000E5B
:10229600156E15500F24026E16501020036E15C0D1
:1022A60012F011C013F0122A5BEF11F0D89013321E
:1022B600122E59EF11F01350010B046E71EC0EF053
:1022C600154A162A16BE71EF11F0165009E1080ECE
:1022D600155CD8A071EF11F073EF11F04CEF11F00F
:1022E6000FC00CF010C00DF035EC13F0146E145046
:1022F60012000F501010D8A483EF11F085EF11F0E3
:1023060089EF11F0000E146EC5EF11F0090E0F24BF
:10231600026E000E1020036E000E046E71EC0EF0BD
:10232600000E166E000E156E15500F24026E165016
:102336001020036E15C012F011C013F0122AA6EF7A
:1023460011F0D8901332122EA4EF11F01350010B96
:10235600046E71EC0EF0154A162A16BEBCEF11F08B
:10236600165009E1080E155CD8A0BCEF11F0BEEFBF
:1023760011F097EF11F00FC00CF010C00DF035EC16
:1023860013F0146E14501200000E116E0C500D1046
:10239600D8B4D0EF11F0D2EF11F0DBEF11F00E5000
:1023A6000F10D8A4D9EF11F0DBEF11F0DFEF11F029
:1023B600000E106E07EF12F00CC002F00DC003F015
:1023C600110E046E000E056E2FEC10F0106E110447
:1023D600D8A4F0EF11F0F2EF11F0FAEF11F00EC001
:1023E600D9FF0FC0DAFF010EDF6E07EF12F01150B2
:1023F600D8A400EF12F002EF12F0DBEF11F00EC0DE
:10240600D9FF0FC0DAFFDF6A1050120017BE0EEFB9
:1024160012F010EF12F016EF12F016C01BF017C0F4
:102426001CF01AEF12F0000E1C6E000E1B6E000E52
:102436001A6E000E196E2CEF12F0000E036E200EAF
:10244600026E12C004F013C005F007EC0FF0194A33
:102456001A2A1B50195C1A50800A186E1C50800AE2
:102466001858D8A039EF12F03BEF12F020EF12F017
:1024760014C00BF015C00CF012C00DF013C00EF016
:10248600EBEC13F01200020EF66E290EF76E000E3C
:10249600F86E00EEC0F010EE28F00900F5CFEEFF62
:1024A600E550E150FAE1C80EF66E290EF76E000E01
:1024B600F86E00EE76F010EE07F00900F5CFEEFFAD
:1024C600E550E150FAE101EE00F0200EEE6AE80672
:1024D600FDE100EE80F0400EEE6AE806FDE100EE5A
:1024E6005AF01C0EEE6AE806FDE17D907D92000131
:1024F600C6EF09F00C500D10D8B484EF12F086EF39
:1025060012F097EF12F00CC0D9FF0DC0DAFFDF30E2
:10251600E832E832070B0E6E070E0E6495EF12F0E6
:1025260097EF12F09BEF12F0000E0F6EB1EF12F064
:102536000CC002F00DC003F0A0EC0CF00F6E0CC046
:1025460002F00DC003F00CC0D9FF0DC0DAFF000E7B
:10255600DFBE010E046E71EC0EF00F6E0F5012000E
:102566001E501F10D8B4BAEF12F0BCEF12F0C5EF30
:1025760012F022502310D8A4C3EF12F0C5EF12F0C8
:10258600C9EF12F0000E246EDEEF12F01EC017F037
:102596001FC018F020C019F021C01AF0CEEC0FF0C1
:1025A6001EC017F01FC018F022C019F023C01AF081
:1025B600E3EC10F0246E24501200586E010E596E92
:1025C60056505710D8A4EAEF12F0ECEF12F0F0EFE5
:1025D60012F0000E596E0BEF13F056C002F057C002
:1025E60003F0000E056E000E046E000E076E040E5C
:1025F600066EE5EC0BF056C040F057C041F0210ED8
:10260600426E100E436E58C044F0456A5CEC13F0FF
:10261600595012003AC03EF03BC03FF021EF13F094
:1026260038C02AF039C02BF03E0E2C6E000E2D6EEF
:102636003CC02EF03DC02FF0DBEC0DF03EC0F6FFA7
:102646003FC0F7FFF86A0800F5500009D8A42EEF3E
:1026560013F030EF13F013EF13F0000E396E000E87
:10266600386E12000C500D10D8A43CEF13F03EEF5C
:1026760013F042EF13F0000E0E6E5AEF13F0080E31
:102686000C24026E000E0D20036E010E046E71EC1A
:102696000EF000D000D000F0080E0C24026E000EE2
:1026A6000D20036E000E046E71EC0EF00E6E0E50D1
:1026B6001200440E486E000E496E40C04AF041C0FA
:1026C6004BF0000E4E6E000E4D6E000E556E000E57
:1026D600546E4A0E386E000E396E42C03AF043C050
:1026E6003BF0480E3C6E000E3D6E0DEC13F04D5067
:1026F6004024D96E4E504120DA6EDF6A12000C502B
:102706000D10D8A489EF13F08BEF13F08FEF13F0B1
:10271600000E0E6EA3EF13F00CC002F00DC003F016
:10272600000E046E71EC0EF00E6E010E0C24026E9D
:10273600000E0D20036E000E046E71EC0EF00E6E90
:102746000E5012000C500D10D8A4ACEF13F0AEEFE3
:1027560013F0B2EF13F0000E0E6EC6EF13F00CC0BE
:1027660002F00DC003F0010E046E71EC0EF00E6E59
:10277600010E0C24026E000E0D20036E000E046E78
:1027860071EC0EF00E6E0E5012000C500D10D8A407
:10279600CFEF13F0D1EF13F0D5EF13F0000E0E6E5E
:1027A600E9EF13F00CC002F00DC003F0000E046E4A
:1027B60071EC0EF00E6E010E0C24026E000E0D2052
:1027C600036E010E046E71EC0EF00E6E0E501200CA
:1027D600000E116E000E106EFCEF13F00FC002F02B
:1027E600036A0DC004F00EC005F007EC0FF0104AA6
:1027F600112A10500B24D96E11500C20DA6EDF50BE
:102806000F6E0F50D8A40AEF14F00CEF14F0F1EF8E
:1028160013F0120009BE1AEF14F0095006E108047D
:10282600D8B018EF14F01AEF14F028EF14F008C01F
:102836000AF009C00BF00A1E0B1E0A4A0B2A0AC030
:1028460008F00BC009F02CEF14F008C008F009C01E
:1028560009F01200790E106E000E116E4CEC14F099
:10286600770E106E000E116E4CEC14F0DE0E176E25
:10287600000E186E42EC0DF07C0E106E000E116EFE
:102886006BEC14F07B0E106E000E116E6BEC14F0F8
:10289600120010501110D8A453EF14F055EF14F095
:1028A60059EF14F0000E126E69EF14F010C00CF020
:1028B60011C00DF07DEC12F0126E010E10240C6E9C
:1028C600000E11200D6E7DEC12F0126E12501200E9
:1028D60010501110D8A472EF14F074EF14F078EFC2
:1028E60014F0000E126E7FEF14F010C00CF011C041
:1028F6000DF07DEC12F0126E12501200890F8A0F45
:102906008B0F8C0F8D0F800F810F820F830F840F1B
:10291600920F930F940F950F960F030B131B232BF8
:10292600333B0A02016EF2900150D8A49DEF14F0D9
:102936009FEF14F0A1EF14F0A1EF14F01200016E56
:10294600F2900150D8A4AAEF14F0ACEF14F0AEEF59
:1029560014F0AEEF14F01200016EF2900150D8A4FC
:10296600B7EF14F0B9EF14F0BBEF14F0BBEF14F0AF
:102976001200016EF2900150D8A4C4EF14F0C6EF15
:1029860014F0C8EF14F0C8EF14F01200A1926150D1
:10299600B36E60C0B2FF12009E906350CF6E62C0ED
:1029A600CEFF1200F2946550D76E64C0D6FF1200B7
:1029B6002DEC14F0F5EC14F012009E926BC0CCFFD7
:0929C600120005222A121A7A728D
:1029D000F0921200F0901200F2921200A1901200F8
:0C29E0009E9412009E9C12001200120037
:020000040030CA
:0E000000FF071F1FFF8185FF0FC00FE00F409D
:00000001FF
